:0410800050EF08F035
:10108800E9CF17F2EACF18F2E1CF19F23BED0CF0F5
:10109800E0CF21F2AAEF0CF000EE00F011EE11F013
:1010A80068EC08F004EE00F011EE00F068EC08F0CF
:1010B8000FEE70F00F0EEE6AE806FDE1000EF86E16
:1010C800120EF76E87EF0CF0EE6AE550E150FCE186
:0610D800E250FAE11200F3
:10120000006C6F6E2333302E373339393335330D5D
:101210000A006C61742334362E3437353835343354
:101220000D0A006C6F6E2333302E3733393439306A
:101230000D0A006C61742334362E3437353836315C
:101240000D0A003E2052756E546F4C6976650D0A8A
:10125000003E204552524F52205B315D0D0A007016
:10126000686F746F496423310D0A00726164697597
:10127000732331300D0A0074797065496423310D90
:101280000A0074797065496423320D0A003E2046D5
:101290006972650D0A003E20534F530D0A003C0D44
:1012A0000A0000009EAA12009E9A00EE02F01B5156
:1012B000E9261C51EA22AECFEFFF1BC2E9FF1CC298
:1012C000EAFFEF5001E085D000EE02F01B51E92665
:1012D0001C51EA22EF507DE000EE02F01B51E9269E
:1012E0001C51EA22EF500A0A37E001EE04F01B51CC
:1012F000E9261C51EA22EECF1DF2EDCF1EF2800E40
:101300001D5D000E1E5955E200EE02F01B51E9264C
:101310001C51EA2211EE04F01B51E1261C51E2227D
:10132000E6CF1DF2E5CF1EF21D511B251F6F1E518A
:101330001C21206F040E1F25E16E000E2021E26E9D
:10134000EFCFE7FF01EE04F01B51E9261C51EA2222
:10135000EE2A000EED223DD001EE04F01B51E926ED
:101360001C51EA22EECF1DF2EDCF1EF2800E1D5D64
:10137000000E1E591EE200EE02F01B51E9261C5120
:10138000EA2211EE04F01B51E1261C51E222E6CFC5
:101390001DF2E5CF1EF21D511B251F6F1E511C2192
:1013A000206F040E1F25E16E000E2021E26EEFCFAC
:1013B000E7FF01EE04F01B51E9261C51EA22EE6A18
:1013C000ED6A00EE03F01B51E9261C51EA22010EE2
:1013D000EF6E010E1BC2E9FF1CC2EAFFEF62010CB7
:1013E00000EE02F01B51E9261C51EA2211EE04F036
:1013F0001B51E1261C51E222E6CF1DF2E5CF1EF281
:101400001D511B251F6F1E511C21206F040E1F250F
:10141000E16E000E2021E26EEFCFE7FF01EE04F057
:101420001B51E9261C51EA22EE2A000EED2201EEA4
:1014300004F01B51E9261C51EA22EE50030AED107C
:1014400037E100EE04F01B51E9261C51EA22240E7C
:10145000EF6226D000EE05F01B51E9261C51EA226E
:10146000EF501EE000EE06F01B51E9261C51EA2267
:10147000EF5016E000EE06F01B51E9261C51EA225F
:10148000EF501D6F1DC21EF21F6B01EE06F01B51C7
:10149000E9261C51EA221EC2EEFF1FC2EDFF08D052
:1014A00001EE04F01B51E9261C51EA22EE6AED6AB6
:1014B00001EE06F01B51E9261C51EA22EE50ED1018
:1014C000D8B4120001EE06F01B51E9261C51EA22A5
:1014D00011EE04F01B51E1261C51E222E652EE52BD
:1014E000ED50E518EFCFE8FFD8B4E718D8A4120004
:1014F00001EE04F01B51E9261C51EA22EE6AED6A66
:1015000000EE03F01B51E9261C51EA22010EEF6E9A
:10151000010C80A000B041D0014A022A100E015CEB
:10152000270E02583AE300808B828D0E086F070E5B
:10153000066F000E076B9AEC0CF0330E086F070E67
:10154000066F000E076B9AEC0CF0230E086F070E67
:10155000066F000E076B9AEC0CF06B0E086F070E0F
:10156000066F000E076B9AEC0CF0770E086F070EF3
:10157000066F000E076B9AEC0CF05F0E086F070EFB
:10158000066F000E076B9AEC0CF09E0E086F070EAC
:10159000066F000E076B9AEC0CF080A004D0009050
:1015A000016A026A8B9280A200B241D0034A042AE7
:1015B000100E035C270E04583AE300828B84960ECB
:1015C000086F070E066F000E076B9AEC0CF0120EF8
:1015D000086F070E066F000E076B9AEC0CF0010EF9
:1015E000086F070E066F000E076B9AEC0CF06B0E7F
:1015F000086F070E066F000E076B9AEC0CF0820E58
:10160000086F070E066F000E076B9AEC0CF05F0E6A
:10161000086F070E066F000E076B9AEC0CF09E0E1B
:10162000086F070E066F000E076B9AEC0CF080A295
:1016300012000092036A046A8B941200026B036B1F
:1016400000EE03F00051E9260151EA22010EEF629B
:10165000010C00EE03F00051E9260151EA22000ED0
:10166000EF6E00C2E9FF01C2EAFFEF50D8A41200FA
:1016700000EE04F00051E9260151EA22240EEF6247
:101680003DD009D0430E086F00C206F201C207F236
:101690009AEC0CF011D000EE05F00051E926015152
:1016A000EA22EF503F0AEEE0510E086F00C206F248
:1016B00001C207F29AEC0CF09E0E086F00C206F20F
:1016C00001C207F29AEC0CF0F36AF46A00C204F269
:1016D00001C205F2F3500427F4500523040E04253B
:1016E000E96E000E0521EA6EEF6AF34AF42A800ED5
:1016F000F35C000EF458D8B01200E8D7026B036B0D
:1017000000C204F201C205F202510427035105236D
:10171000040E0425E96E000E0521EA6EEF6A024B05
:10172000032B800E025D000E0359D8B01200E8D7DB
:10173000949C948EAC98AC9CAC8AAB9CAB88AB8EE2
:101740003CD0B896AC8402C20FF203C210F204C2BD
:1017500011F205C212F20B6B6C0E0C6FDC0E0D6FEA
:10176000020E0E6F00EC0CF0050E05D0D8900E3373
:101770000D330C330B33E82EF9D71CD0B896AC944C
:1017800002C20FF203C210F204C211F205C212F239
:101790000B6B6C0E0C6FDC0E0D6F020E0E6F00ECFF
:1017A0000CF0070E05D0D8900E330D330C330B33ED
:1017B000E82EF9D70B05AF6E21D002C207F203C2A3
:1017C00008F204C209F205C20AF216D004D0075189
:1017D000800AD4E013D00851250AF9E00FD003D0D5
:1017E0000751AFE00BD00851C20AFAE007D0095107
:1017F000EDE0010AF4E002D00A51F9E09D8A1200FE
:10180000136B146B156B166B12510F111011111114
:1018100029E0010EE16ED89012BF07D00F371037C4
:1018200011371237E12AF7D7D89013371437153705
:1018300016370F510B5D10510C5911510D591251A2
:101840000E5909E30F510B5F10510C5B11510D5BE9
:1018500012510E5B1381D8901233113310330F33B2
:10186000E12EE2D713C20BF214C20CF215C20DF234
:1018700016C20EF212000600E2CF1AF2F2A412D043
:10188000F294E80ED76E900ED66E01010F4B102B1E
:10189000054A062A1005F40ED8B40F1903E10F6BA0
:1018A000106B8B70070E02011B6F000E1C6B52EC4D
:1018B00009F01AC2E2FF19C2E1FF18C2EAFF17C21B
:1018C000E9FF1100F29EF29EF29CF29C0F0EC16E97
:1018D000070E926E936A946A806A816A826A800EA9
:1018E000D56EF28AD08EF1840201066B026F250E4E
:1018F000036F046B056B070E006F000E016B98EC15
:101900000BF0F28EF28EF28CF28CD08E120062EC22
:101910000CF0450E086F070E066F000E076B9AEC71
:101920000CF089EC0AF0070E006F000E016B1EEC44
:101930000BF0F7D704D0E1CFADFFACA2FED7082B58
:101940000805096F09C2F6FF0800F5CFE1FFE1665F
:0A195000F2D7120021C2E0FF1000E0
:020000040030CA
:0E000000E43EFFFEFFF19BFFFFFFFFFFFFFF4F
:00000001FF
